{
  "contractName": "Beans",
  "abi": [
    {
      "inputs": [],
      "stateMutability": "nonpayable",
      "type": "constructor"
    },
    {
      "anonymous": false,
      "inputs": [
        {
          "indexed": true,
          "internalType": "address",
          "name": "owner",
          "type": "address"
        },
        {
          "indexed": true,
          "internalType": "address",
          "name": "approved",
          "type": "address"
        },
        {
          "indexed": true,
          "internalType": "uint256",
          "name": "tokenId",
          "type": "uint256"
        }
      ],
      "name": "Approval",
      "type": "event"
    },
    {
      "anonymous": false,
      "inputs": [
        {
          "indexed": true,
          "internalType": "address",
          "name": "owner",
          "type": "address"
        },
        {
          "indexed": true,
          "internalType": "address",
          "name": "operator",
          "type": "address"
        },
        {
          "indexed": false,
          "internalType": "bool",
          "name": "approved",
          "type": "bool"
        }
      ],
      "name": "ApprovalForAll",
      "type": "event"
    },
    {
      "anonymous": false,
      "inputs": [
        {
          "indexed": true,
          "internalType": "address",
          "name": "previousOwner",
          "type": "address"
        },
        {
          "indexed": true,
          "internalType": "address",
          "name": "newOwner",
          "type": "address"
        }
      ],
      "name": "OwnershipTransferred",
      "type": "event"
    },
    {
      "anonymous": false,
      "inputs": [
        {
          "indexed": true,
          "internalType": "address",
          "name": "from",
          "type": "address"
        },
        {
          "indexed": true,
          "internalType": "address",
          "name": "to",
          "type": "address"
        },
        {
          "indexed": true,
          "internalType": "uint256",
          "name": "tokenId",
          "type": "uint256"
        }
      ],
      "name": "Transfer",
      "type": "event"
    },
    {
      "inputs": [
        {
          "internalType": "address",
          "name": "to",
          "type": "address"
        },
        {
          "internalType": "uint256",
          "name": "tokenId",
          "type": "uint256"
        }
      ],
      "name": "approve",
      "outputs": [],
      "stateMutability": "nonpayable",
      "type": "function"
    },
    {
      "inputs": [
        {
          "internalType": "address",
          "name": "owner",
          "type": "address"
        }
      ],
      "name": "balanceOf",
      "outputs": [
        {
          "internalType": "uint256",
          "name": "",
          "type": "uint256"
        }
      ],
      "stateMutability": "view",
      "type": "function",
      "constant": true
    },
    {
      "inputs": [
        {
          "internalType": "uint256",
          "name": "tokenId",
          "type": "uint256"
        }
      ],
      "name": "burn",
      "outputs": [],
      "stateMutability": "nonpayable",
      "type": "function"
    },
    {
      "inputs": [
        {
          "internalType": "uint256",
          "name": "tokenId",
          "type": "uint256"
        }
      ],
      "name": "getApproved",
      "outputs": [
        {
          "internalType": "address",
          "name": "",
          "type": "address"
        }
      ],
      "stateMutability": "view",
      "type": "function",
      "constant": true
    },
    {
      "inputs": [
        {
          "internalType": "address",
          "name": "owner",
          "type": "address"
        },
        {
          "internalType": "address",
          "name": "operator",
          "type": "address"
        }
      ],
      "name": "isApprovedForAll",
      "outputs": [
        {
          "internalType": "bool",
          "name": "",
          "type": "bool"
        }
      ],
      "stateMutability": "view",
      "type": "function",
      "constant": true
    },
    {
      "inputs": [],
      "name": "name",
      "outputs": [
        {
          "internalType": "string",
          "name": "",
          "type": "string"
        }
      ],
      "stateMutability": "view",
      "type": "function",
      "constant": true
    },
    {
      "inputs": [],
      "name": "owner",
      "outputs": [
        {
          "internalType": "address",
          "name": "",
          "type": "address"
        }
      ],
      "stateMutability": "view",
      "type": "function",
      "constant": true
    },
    {
      "inputs": [
        {
          "internalType": "uint256",
          "name": "tokenId",
          "type": "uint256"
        }
      ],
      "name": "ownerOf",
      "outputs": [
        {
          "internalType": "address",
          "name": "",
          "type": "address"
        }
      ],
      "stateMutability": "view",
      "type": "function",
      "constant": true
    },
    {
      "inputs": [],
      "name": "renounceOwnership",
      "outputs": [],
      "stateMutability": "nonpayable",
      "type": "function"
    },
    {
      "inputs": [
        {
          "internalType": "address",
          "name": "from",
          "type": "address"
        },
        {
          "internalType": "address",
          "name": "to",
          "type": "address"
        },
        {
          "internalType": "uint256",
          "name": "tokenId",
          "type": "uint256"
        }
      ],
      "name": "safeTransferFrom",
      "outputs": [],
      "stateMutability": "nonpayable",
      "type": "function"
    },
    {
      "inputs": [
        {
          "internalType": "address",
          "name": "from",
          "type": "address"
        },
        {
          "internalType": "address",
          "name": "to",
          "type": "address"
        },
        {
          "internalType": "uint256",
          "name": "tokenId",
          "type": "uint256"
        },
        {
          "internalType": "bytes",
          "name": "_data",
          "type": "bytes"
        }
      ],
      "name": "safeTransferFrom",
      "outputs": [],
      "stateMutability": "nonpayable",
      "type": "function"
    },
    {
      "inputs": [
        {
          "internalType": "address",
          "name": "operator",
          "type": "address"
        },
        {
          "internalType": "bool",
          "name": "approved",
          "type": "bool"
        }
      ],
      "name": "setApprovalForAll",
      "outputs": [],
      "stateMutability": "nonpayable",
      "type": "function"
    },
    {
      "inputs": [
        {
          "internalType": "bytes4",
          "name": "interfaceId",
          "type": "bytes4"
        }
      ],
      "name": "supportsInterface",
      "outputs": [
        {
          "internalType": "bool",
          "name": "",
          "type": "bool"
        }
      ],
      "stateMutability": "view",
      "type": "function",
      "constant": true
    },
    {
      "inputs": [],
      "name": "symbol",
      "outputs": [
        {
          "internalType": "string",
          "name": "",
          "type": "string"
        }
      ],
      "stateMutability": "view",
      "type": "function",
      "constant": true
    },
    {
      "inputs": [
        {
          "internalType": "address",
          "name": "from",
          "type": "address"
        },
        {
          "internalType": "address",
          "name": "to",
          "type": "address"
        },
        {
          "internalType": "uint256",
          "name": "tokenId",
          "type": "uint256"
        }
      ],
      "name": "transferFrom",
      "outputs": [],
      "stateMutability": "nonpayable",
      "type": "function"
    },
    {
      "inputs": [
        {
          "internalType": "address",
          "name": "newOwner",
          "type": "address"
        }
      ],
      "name": "transferOwnership",
      "outputs": [],
      "stateMutability": "nonpayable",
      "type": "function"
    },
    {
      "inputs": [
        {
          "internalType": "address",
          "name": "to",
          "type": "address"
        },
        {
          "internalType": "string",
          "name": "uri",
          "type": "string"
        }
      ],
      "name": "safeMint",
      "outputs": [],
      "stateMutability": "nonpayable",
      "type": "function"
    },
    {
      "inputs": [
        {
          "internalType": "uint256",
          "name": "tokenId",
          "type": "uint256"
        }
      ],
      "name": "tokenURI",
      "outputs": [
        {
          "internalType": "string",
          "name": "",
          "type": "string"
        }
      ],
      "stateMutability": "view",
      "type": "function",
      "constant": true
    },
    {
      "inputs": [
        {
          "internalType": "string",
          "name": "uri",
          "type": "string"
        }
      ],
      "name": "isContentOwned",
      "outputs": [
        {
          "internalType": "bool",
          "name": "",
          "type": "bool"
        }
      ],
      "stateMutability": "view",
      "type": "function",
      "constant": true
    },
    {
      "inputs": [
        {
          "internalType": "address",
          "name": "recipient",
          "type": "address"
        },
        {
          "internalType": "string",
          "name": "metadataURI",
          "type": "string"
        }
      ],
      "name": "payToMint",
      "outputs": [
        {
          "internalType": "uint256",
          "name": "",
          "type": "uint256"
        }
      ],
      "stateMutability": "payable",
      "type": "function",
      "payable": true
    },
    {
      "inputs": [],
      "name": "count",
      "outputs": [
        {
          "internalType": "uint256",
          "name": "",
          "type": "uint256"
        }
      ],
      "stateMutability": "view",
      "type": "function",
      "constant": true
    }
  ],
  "bytecode": "0x60806040523480156200001157600080fd5b5060408051808201825260058152644265616e7360d81b602080830191825283518085019094526003845262424e5360e81b9084015281519192916200005a91600091620000e9565b50805162000070906001906020840190620000e9565b5050506200008d620000876200009360201b60201c565b62000097565b620001cc565b3390565b600780546001600160a01b038381166001600160a01b0319831681179093556040519116919082907f8be0079c531659141344cd1fd0a4f28419497f9722a3daafe3b4186f6b6457e090600090a35050565b828054620000f7906200018f565b90600052602060002090601f0160209004810192826200011b576000855562000166565b82601f106200013657805160ff191683800117855562000166565b8280016001018555821562000166579182015b828111156200016657825182559160200191906001019062000149565b506200017492915062000178565b5090565b5b8082111562000174576000815560010162000179565b600181811c90821680620001a457607f821691505b60208210811415620001c657634e487b7160e01b600052602260045260246000fd5b50919050565b611dcb80620001dc6000396000f3fe60806040526004361061012a5760003560e01c806370a08231116100ab578063a22cb4651161006f578063a22cb4651461031e578063b88d4fde1461033e578063c87b56dd1461035e578063d204c45e1461037e578063e985e9c51461039e578063f2fde38b146103e757600080fd5b806370a0823114610296578063715018a6146102b65780638da5cb5b146102cb57806395d89b41146102e95780639f1cabc6146102fe57600080fd5b806323b872dd116100f257806323b872dd1461020357806342842e0e1461022357806342966c6814610243578063615fd9e2146102635780636352211e1461027657600080fd5b806301ffc9a71461012f57806306661abd1461016457806306fdde0314610187578063081812fc146101a9578063095ea7b3146101e1575b600080fd5b34801561013b57600080fd5b5061014f61014a3660046117d1565b610407565b60405190151581526020015b60405180910390f35b34801561017057600080fd5b50610179610459565b60405190815260200161015b565b34801561019357600080fd5b5061019c610469565b60405161015b9190611846565b3480156101b557600080fd5b506101c96101c4366004611859565b6104fb565b6040516001600160a01b03909116815260200161015b565b3480156101ed57600080fd5b506102016101fc36600461188e565b610588565b005b34801561020f57600080fd5b5061020161021e3660046118b8565b61069e565b34801561022f57600080fd5b5061020161023e3660046118b8565b6106d0565b34801561024f57600080fd5b5061020161025e366004611859565b6106eb565b6101796102713660046119a0565b610765565b34801561028257600080fd5b506101c9610291366004611859565b610884565b3480156102a257600080fd5b506101796102b13660046119ee565b6108fb565b3480156102c257600080fd5b50610201610982565b3480156102d757600080fd5b506007546001600160a01b03166101c9565b3480156102f557600080fd5b5061019c6109b8565b34801561030a57600080fd5b5061014f610319366004611a09565b6109c7565b34801561032a57600080fd5b50610201610339366004611a3e565b6109f5565b34801561034a57600080fd5b50610201610359366004611a7a565b610a04565b34801561036a57600080fd5b5061019c610379366004611859565b610a3c565b34801561038a57600080fd5b506102016103993660046119a0565b610a47565b3480156103aa57600080fd5b5061014f6103b9366004611af6565b6001600160a01b03918216600090815260056020908152604080832093909416825291909152205460ff1690565b3480156103f357600080fd5b506102016104023660046119ee565b610aa0565b60006001600160e01b031982166380ac58cd60e01b148061043857506001600160e01b03198216635b5e139f60e01b145b8061045357506301ffc9a760e01b6001600160e01b03198316145b92915050565b600061046460085490565b905090565b60606000805461047890611b29565b80601f01602080910402602001604051908101604052809291908181526020018280546104a490611b29565b80156104f15780601f106104c6576101008083540402835291602001916104f1565b820191906000526020600020905b8154815290600101906020018083116104d457829003601f168201915b5050505050905090565b600061050682610b38565b61056c5760405162461bcd60e51b815260206004820152602c60248201527f4552433732313a20617070726f76656420717565727920666f72206e6f6e657860448201526b34b9ba32b73a103a37b5b2b760a11b60648201526084015b60405180910390fd5b506000908152600460205260409020546001600160a01b031690565b600061059382610884565b9050806001600160a01b0316836001600160a01b031614156106015760405162461bcd60e51b815260206004820152602160248201527f4552433732313a20617070726f76616c20746f2063757272656e74206f776e656044820152603960f91b6064820152608401610563565b336001600160a01b038216148061061d575061061d81336103b9565b61068f5760405162461bcd60e51b815260206004820152603860248201527f4552433732313a20617070726f76652063616c6c6572206973206e6f74206f7760448201527f6e6572206e6f7220617070726f76656420666f7220616c6c00000000000000006064820152608401610563565b6106998383610b55565b505050565b6106a9335b82610bc3565b6106c55760405162461bcd60e51b815260040161056390611b64565b610699838383610cad565b61069983838360405180602001604052806000815250610a04565b6106f4336106a3565b6107595760405162461bcd60e51b815260206004820152603060248201527f4552433732314275726e61626c653a2063616c6c6572206973206e6f74206f7760448201526f1b995c881b9bdc88185c1c1c9bdd995960821b6064820152608401610563565b61076281610e49565b50565b60006009826040516107779190611bb5565b9081526040519081900360200190205460ff16600114156107d05760405162461bcd60e51b81526020600482015260136024820152724e465420616c7265616479206d696e7465642160681b6044820152606401610563565b66b1a2bc2ec500003410156108195760405162461bcd60e51b815260206004820152600f60248201526e4e65656420746f207061792075702160881b6044820152606401610563565b600061082460085490565b9050610834600880546001019055565b60016009846040516108469190611bb5565b908152604051908190036020019020805460ff9290921660ff199092169190911790556108738482610e52565b61087d8184610f85565b9392505050565b6000818152600260205260408120546001600160a01b0316806104535760405162461bcd60e51b815260206004820152602960248201527f4552433732313a206f776e657220717565727920666f72206e6f6e657869737460448201526832b73a103a37b5b2b760b91b6064820152608401610563565b60006001600160a01b0382166109665760405162461bcd60e51b815260206004820152602a60248201527f4552433732313a2062616c616e636520717565727920666f7220746865207a65604482015269726f206164647265737360b01b6064820152608401610563565b506001600160a01b031660009081526003602052604090205490565b6007546001600160a01b031633146109ac5760405162461bcd60e51b815260040161056390611bd1565b6109b66000611010565b565b60606001805461047890611b29565b60006009826040516109d99190611bb5565b9081526040519081900360200190205460ff1660011492915050565b610a00338383611062565b5050565b610a0e3383610bc3565b610a2a5760405162461bcd60e51b815260040161056390611b64565b610a3684848484611131565b50505050565b606061045382611164565b6007546001600160a01b03163314610a715760405162461bcd60e51b815260040161056390611bd1565b6000610a7c60085490565b9050610a8c600880546001019055565b610a9683826112e2565b6106998183610f85565b6007546001600160a01b03163314610aca5760405162461bcd60e51b815260040161056390611bd1565b6001600160a01b038116610b2f5760405162461bcd60e51b815260206004820152602660248201527f4f776e61626c653a206e6577206f776e657220697320746865207a65726f206160448201526564647265737360d01b6064820152608401610563565b61076281611010565b6000908152600260205260409020546001600160a01b0316151590565b600081815260046020526040902080546001600160a01b0319166001600160a01b0384169081179091558190610b8a82610884565b6001600160a01b03167f8c5be1e5ebec7d5bd14f71427d1e84f3dd0314c0f7b2291e5b200ac8c7c3b92560405160405180910390a45050565b6000610bce82610b38565b610c2f5760405162461bcd60e51b815260206004820152602c60248201527f4552433732313a206f70657261746f7220717565727920666f72206e6f6e657860448201526b34b9ba32b73a103a37b5b2b760a11b6064820152608401610563565b6000610c3a83610884565b9050806001600160a01b0316846001600160a01b03161480610c755750836001600160a01b0316610c6a846104fb565b6001600160a01b0316145b80610ca557506001600160a01b0380821660009081526005602090815260408083209388168352929052205460ff165b949350505050565b826001600160a01b0316610cc082610884565b6001600160a01b031614610d245760405162461bcd60e51b815260206004820152602560248201527f4552433732313a207472616e736665722066726f6d20696e636f72726563742060448201526437bbb732b960d91b6064820152608401610563565b6001600160a01b038216610d865760405162461bcd60e51b8152602060048201526024808201527f4552433732313a207472616e7366657220746f20746865207a65726f206164646044820152637265737360e01b6064820152608401610563565b610d91600082610b55565b6001600160a01b0383166000908152600360205260408120805460019290610dba908490611c1c565b90915550506001600160a01b0382166000908152600360205260408120805460019290610de8908490611c33565b909155505060008181526002602052604080822080546001600160a01b0319166001600160a01b0386811691821790925591518493918716917fddf252ad1be2c89b69c2b068fc378daa952ba7f163c4a11628f55a4df523b3ef91a4505050565b610762816112fc565b6001600160a01b038216610ea85760405162461bcd60e51b815260206004820181905260248201527f4552433732313a206d696e7420746f20746865207a65726f20616464726573736044820152606401610563565b610eb181610b38565b15610efe5760405162461bcd60e51b815260206004820152601c60248201527f4552433732313a20746f6b656e20616c7265616479206d696e746564000000006044820152606401610563565b6001600160a01b0382166000908152600360205260408120805460019290610f27908490611c33565b909155505060008181526002602052604080822080546001600160a01b0319166001600160a01b03861690811790915590518392907fddf252ad1be2c89b69c2b068fc378daa952ba7f163c4a11628f55a4df523b3ef908290a45050565b610f8e82610b38565b610ff15760405162461bcd60e51b815260206004820152602e60248201527f45524337323155524953746f726167653a2055524920736574206f66206e6f6e60448201526d32bc34b9ba32b73a103a37b5b2b760911b6064820152608401610563565b60008281526006602090815260409091208251610699928401906116ec565b600780546001600160a01b038381166001600160a01b0319831681179093556040519116919082907f8be0079c531659141344cd1fd0a4f28419497f9722a3daafe3b4186f6b6457e090600090a35050565b816001600160a01b0316836001600160a01b031614156110c45760405162461bcd60e51b815260206004820152601960248201527f4552433732313a20617070726f766520746f2063616c6c6572000000000000006044820152606401610563565b6001600160a01b03838116600081815260056020908152604080832094871680845294825291829020805460ff191686151590811790915591519182527f17307eab39ab6107e8899845ad3d59bd9653f200f220920489ca2b5937696c31910160405180910390a3505050565b61113c848484610cad565b6111488484848461133c565b610a365760405162461bcd60e51b815260040161056390611c4b565b606061116f82610b38565b6111d55760405162461bcd60e51b815260206004820152603160248201527f45524337323155524953746f726167653a2055524920717565727920666f72206044820152703737b732bc34b9ba32b73a103a37b5b2b760791b6064820152608401610563565b600082815260066020526040812080546111ee90611b29565b80601f016020809104026020016040519081016040528092919081815260200182805461121a90611b29565b80156112675780601f1061123c57610100808354040283529160200191611267565b820191906000526020600020905b81548152906001019060200180831161124a57829003601f168201915b505050505090506000611294604080518082019091526007815266697066733a2f2f60c81b602082015290565b90508051600014156112a7575092915050565b8151156112d95780826040516020016112c1929190611c9d565b60405160208183030381529060405292505050919050565b610ca58461143a565b610a00828260405180602001604052806000815250611520565b61130581611553565b6000818152600660205260409020805461131e90611b29565b15905061076257600081815260066020526040812061076291611770565b60006001600160a01b0384163b1561142f57604051630a85bd0160e11b81526001600160a01b0385169063150b7a0290611380903390899088908890600401611ccc565b6020604051808303816000875af19250505080156113bb575060408051601f3d908101601f191682019092526113b891810190611d09565b60015b611415573d8080156113e9576040519150601f19603f3d011682016040523d82523d6000602084013e6113ee565b606091505b50805161140d5760405162461bcd60e51b815260040161056390611c4b565b805181602001fd5b6001600160e01b031916630a85bd0160e11b149050610ca5565b506001949350505050565b606061144582610b38565b6114a95760405162461bcd60e51b815260206004820152602f60248201527f4552433732314d657461646174613a2055524920717565727920666f72206e6f60448201526e3732bc34b9ba32b73a103a37b5b2b760891b6064820152608401610563565b60006114cf604080518082019091526007815266697066733a2f2f60c81b602082015290565b905060008151116114ef576040518060200160405280600081525061087d565b806114f9846115ee565b60405160200161150a929190611c9d565b6040516020818303038152906040529392505050565b61152a8383610e52565b611537600084848461133c565b6106995760405162461bcd60e51b815260040161056390611c4b565b600061155e82610884565b905061156b600083610b55565b6001600160a01b0381166000908152600360205260408120805460019290611594908490611c1c565b909155505060008281526002602052604080822080546001600160a01b0319169055518391906001600160a01b038416907fddf252ad1be2c89b69c2b068fc378daa952ba7f163c4a11628f55a4df523b3ef908390a45050565b6060816116125750506040805180820190915260018152600360fc1b602082015290565b8160005b811561163c578061162681611d26565b91506116359050600a83611d57565b9150611616565b60008167ffffffffffffffff811115611657576116576118f4565b6040519080825280601f01601f191660200182016040528015611681576020820181803683370190505b5090505b8415610ca557611696600183611c1c565b91506116a3600a86611d6b565b6116ae906030611c33565b60f81b8183815181106116c3576116c3611d7f565b60200101906001600160f81b031916908160001a9053506116e5600a86611d57565b9450611685565b8280546116f890611b29565b90600052602060002090601f01602090048101928261171a5760008555611760565b82601f1061173357805160ff1916838001178555611760565b82800160010185558215611760579182015b82811115611760578251825591602001919060010190611745565b5061176c9291506117a6565b5090565b50805461177c90611b29565b6000825580601f1061178c575050565b601f01602090049060005260206000209081019061076291905b5b8082111561176c57600081556001016117a7565b6001600160e01b03198116811461076257600080fd5b6000602082840312156117e357600080fd5b813561087d816117bb565b60005b838110156118095781810151838201526020016117f1565b83811115610a365750506000910152565b600081518084526118328160208601602086016117ee565b601f01601f19169290920160200192915050565b60208152600061087d602083018461181a565b60006020828403121561186b57600080fd5b5035919050565b80356001600160a01b038116811461188957600080fd5b919050565b600080604083850312156118a157600080fd5b6118aa83611872565b946020939093013593505050565b6000806000606084860312156118cd57600080fd5b6118d684611872565b92506118e460208501611872565b9150604084013590509250925092565b634e487b7160e01b600052604160045260246000fd5b600067ffffffffffffffff80841115611925576119256118f4565b604051601f8501601f19908116603f0116810190828211818310171561194d5761194d6118f4565b8160405280935085815286868601111561196657600080fd5b858560208301376000602087830101525050509392505050565b600082601f83011261199157600080fd5b61087d8383356020850161190a565b600080604083850312156119b357600080fd5b6119bc83611872565b9150602083013567ffffffffffffffff8111156119d857600080fd5b6119e485828601611980565b9150509250929050565b600060208284031215611a0057600080fd5b61087d82611872565b600060208284031215611a1b57600080fd5b813567ffffffffffffffff811115611a3257600080fd5b610ca584828501611980565b60008060408385031215611a5157600080fd5b611a5a83611872565b915060208301358015158114611a6f57600080fd5b809150509250929050565b60008060008060808587031215611a9057600080fd5b611a9985611872565b9350611aa760208601611872565b925060408501359150606085013567ffffffffffffffff811115611aca57600080fd5b8501601f81018713611adb57600080fd5b611aea8782356020840161190a565b91505092959194509250565b60008060408385031215611b0957600080fd5b611b1283611872565b9150611b2060208401611872565b90509250929050565b600181811c90821680611b3d57607f821691505b60208210811415611b5e57634e487b7160e01b600052602260045260246000fd5b50919050565b60208082526031908201527f4552433732313a207472616e736665722063616c6c6572206973206e6f74206f6040820152701ddb995c881b9bdc88185c1c1c9bdd9959607a1b606082015260800190565b60008251611bc78184602087016117ee565b9190910192915050565b6020808252818101527f4f776e61626c653a2063616c6c6572206973206e6f7420746865206f776e6572604082015260600190565b634e487b7160e01b600052601160045260246000fd5b600082821015611c2e57611c2e611c06565b500390565b60008219821115611c4657611c46611c06565b500190565b60208082526032908201527f4552433732313a207472616e7366657220746f206e6f6e20455243373231526560408201527131b2b4bb32b91034b6b83632b6b2b73a32b960711b606082015260800190565b60008351611caf8184602088016117ee565b835190830190611cc38183602088016117ee565b01949350505050565b6001600160a01b0385811682528416602082015260408101839052608060608201819052600090611cff9083018461181a565b9695505050505050565b600060208284031215611d1b57600080fd5b815161087d816117bb565b6000600019821415611d3a57611d3a611c06565b5060010190565b634e487b7160e01b600052601260045260246000fd5b600082611d6657611d66611d41565b500490565b600082611d7a57611d7a611d41565b500690565b634e487b7160e01b600052603260045260246000fdfea264697066735822122092161deb70466a6827f81f3ebf5ae2f1736b4c8bb04ddd7b255b0a9b8e8ce1fc64736f6c634300080c0033",
  "immutableReferences": {},
  "source": "// SPDX-License-Identifier: MIT\npragma solidity ^0.8.4;\n\nimport \"@openzeppelin/contracts/token/ERC721/ERC721.sol\";\nimport \"@openzeppelin/contracts/token/ERC721/extensions/ERC721URIStorage.sol\";\nimport \"@openzeppelin/contracts/token/ERC721/extensions/ERC721Burnable.sol\";\nimport \"@openzeppelin/contracts/access/Ownable.sol\";\nimport \"@openzeppelin/contracts/utils/Counters.sol\";\n\ncontract Beans is ERC721, ERC721URIStorage, ERC721Burnable, Ownable {\n    using Counters for Counters.Counter;\n\n    Counters.Counter private _tokenIdCounter;\n\n    mapping(string => uint8) existingURIs;\n\n    constructor() ERC721(\"Beans\", \"BNS\") {}\n\n    function _baseURI() internal pure override returns (string memory) {\n        return \"ipfs://\";\n    }\n\n    function safeMint(address to, string memory uri) public onlyOwner {\n        uint256 tokenId = _tokenIdCounter.current();\n        _tokenIdCounter.increment();\n        _safeMint(to, tokenId);\n        _setTokenURI(tokenId, uri);\n    }\n\n    // The following functions are overrides required by Solidity.\n\n    function _burn(uint256 tokenId)\n        internal\n        override(ERC721, ERC721URIStorage)\n    {\n        super._burn(tokenId);\n    }\n\n    function tokenURI(uint256 tokenId)\n        public\n        view\n        override(ERC721, ERC721URIStorage)\n        returns (string memory)\n    {\n        return super.tokenURI(tokenId);\n    }\n\n    function isContentOwned(string memory uri) public view returns (bool) {\n        return existingURIs[uri] == 1;\n    }\n\n    function payToMint(address recipient, string memory metadataURI)\n        public\n        payable\n        returns (uint256)\n    {\n        require(existingURIs[metadataURI] != 1, \"NFT already minted!\");\n        require(msg.value >= 0.05 ether, \"Need to pay up!\");\n\n        uint256 newItemId = _tokenIdCounter.current();\n        _tokenIdCounter.increment();\n        existingURIs[metadataURI] = 1;\n\n        _mint(recipient, newItemId);\n        _setTokenURI(newItemId, metadataURI);\n\n        return newItemId;\n    }\n\n    function count() public view returns (uint256) {\n        return _tokenIdCounter.current();\n    }\n}\n",
  "sourcePath": "/Users/ginaf/hslu/STUEMTECX/nft-beans/contracts/Beans.sol",
  "compiler": {
    "name": "solc",
    "version": "0.8.12+commit.f00d7308.Emscripten.clang"
  },
  "schemaVersion": "3.4.6",
  "updatedAt": "2022-03-31T12:42:11.359Z",
  "networkType": "ethereum",
  "devdoc": {
    "kind": "dev",
    "methods": {
      "approve(address,uint256)": {
        "details": "See {IERC721-approve}."
      },
      "balanceOf(address)": {
        "details": "See {IERC721-balanceOf}."
      },
      "burn(uint256)": {
        "details": "Burns `tokenId`. See {ERC721-_burn}. Requirements: - The caller must own `tokenId` or be an approved operator."
      },
      "getApproved(uint256)": {
        "details": "See {IERC721-getApproved}."
      },
      "isApprovedForAll(address,address)": {
        "details": "See {IERC721-isApprovedForAll}."
      },
      "name()": {
        "details": "See {IERC721Metadata-name}."
      },
      "owner()": {
        "details": "Returns the address of the current owner."
      },
      "ownerOf(uint256)": {
        "details": "See {IERC721-ownerOf}."
      },
      "renounceOwnership()": {
        "details": "Leaves the contract without owner. It will not be possible to call `onlyOwner` functions anymore. Can only be called by the current owner. NOTE: Renouncing ownership will leave the contract without an owner, thereby removing any functionality that is only available to the owner."
      },
      "safeTransferFrom(address,address,uint256)": {
        "details": "See {IERC721-safeTransferFrom}."
      },
      "safeTransferFrom(address,address,uint256,bytes)": {
        "details": "See {IERC721-safeTransferFrom}."
      },
      "setApprovalForAll(address,bool)": {
        "details": "See {IERC721-setApprovalForAll}."
      },
      "supportsInterface(bytes4)": {
        "details": "See {IERC165-supportsInterface}."
      },
      "symbol()": {
        "details": "See {IERC721Metadata-symbol}."
      },
      "transferFrom(address,address,uint256)": {
        "details": "See {IERC721-transferFrom}."
      },
      "transferOwnership(address)": {
        "details": "Transfers ownership of the contract to a new account (`newOwner`). Can only be called by the current owner."
      }
    },
    "version": 1
  },
  "userdoc": {
    "kind": "user",
    "methods": {},
    "version": 1
  }
}